:020000040000FA
:04000000FEEFFFF020
:10FCC40000982F8A4291443771CFFBC0B5A5DBB5AC
:10FCD400E95BC25639F111F159A4823F92D55E1CF9
:10FCE400AB98AA07D8015B8312BE853124C37D0C6F
:10FCF40055745DBE72FEB1DE80A706DC9B74F19B79
:10FD0400C1C1699BE48647BEEFC69DC10FCCA10C5F
:10FD1400246F2CE92DAA84744ADCA9B05CDA88F932
:10FD24007652513E986DC631A8C82703B0C77F5993
:10FD3400BFF30BE0C64791A7D55163CA06672929CB
:10FD440014850AB72738211B2EFC6D2C4D130D3852
:10FD54005354730A65BB0A6A762EC9C281852C7214
:10FD640092A1E8BFA24B661AA8708B4BC2A3516C38
:10FD7400C719E892D1240699D685350EF470A06A85
:10FD84001016C1A419086C371E4C774827B5BCB0AF
:10FD940034B30C1C394AAAD84E4FCA9C5BF36F2E5D
:10FDA40068EE828F746F63A5781478C8840802C7DC
:10FDB4008CFAFFBE90EB6C50A4F7A3F9BEF27871F5
:10FDC400C6616161616161616161616161616161BA
:10FDD400616161616161616161616161616161610F
:10FDE40061616161616161616161616161616161FF
:10FDF40061616161616161616161616161616161EF
:10FE040061616161616161616161616161616161DE
:10FE140061616161616161616161616161616161CE
:10FE24006161616161004142434445464748494A32
:10FE34004B4C4D4E4F505152535455565758595A96
:10FE44006162636465666768696A6B6C6D6E6F7026
:10FE54007172737475767778797A303132333435D8
:10FE6400363738390061626364626364656364656C
:10FE74006664656667656667686667686967686912
:10FE84006A68696A6B696A6B6C6A6B6C6D6B6C6DC2
:10FE94006E6C6D6E6F6D6E6F706E6F707100CDC72E
:10FEA4006E5C9914FB9281A1C7E284D73E67F1800E
:10FEB4009A48A497200E046D39CCC7112CD0F37145
:10FEC400BC4A311F2B009EEF952DD83CA80E2B6009
:10FED400026C8E935592D0F9C308453C813EDB4BAE
:10FEE400FCBD4DA0CD85A60C3C37D3FBD8805C77F8
:10FEF400F15FC6B1FDFE614EE0A7C8FDB4C0248D1C
:10FF04006A61D20638B8E5C026930C3E6039A33C3A
:10FF1400E45964FF2167F6ECEDD419DB06C171C422
:10FF240080DF93D6AE2F1EFAD1447C66C9525E316F
:10FF34006218CF51FC8D9ED832F2DAF18B73F784BC
:10FF44006F55CF23E14EEBEAB5B4E1550CAD5B50F0
:10FF54009E3348FBC4EFA3A1413D393CB650BA7867
:10FF640016BF8F01CFEA414140DE5DAE2223B003CC
:10FF740061A396177A9CB410FF61F20015AD61621B
:10FF8400636465666768696A6B6C6D6E6F707172C5
:10FF9400737475767778797A006D657373616765C4
:10FFA4002064696765737400313233343536373809
:10FFB40039300061626300CA978112CA1BBDCAFA54
:10FFC400C231B39A23DC4DA786EFF8147C4E72B984
:10FFD400807785AFEE48BBE3B0C44298FC1C149A0A
:10FFE400FBF4C8996FB92427AE41E4649B934CA4F5
:0BFFF40095991B7852B8556100000081
:020000040001F9
:10000000240E01240001C06F000E0220C16F20EEFB
:1000100064F00150D9260250DA226F0078FFCBF04D
:100020006F0074FFCCF0000ECA6F600003F3D9FFBD
:10003000600007F3DAFFDF50036E0350BC6FBD6B47
:10004000BE6BBF6BC04BC12B6000F8F2BFF060000D
:10005000F4F2BEF06000F0F2BDF0BC6B600003F3A0
:10006000D9FF600007F3DAFFDF50036E0350BC27AF
:10007000000EBD23BE23BF23C04BC12B6000F8F28E
:10008000BFF06000F4F2BEF06000F0F2BDF0BC6BB7
:10009000600003F3D9FF600007F3DAFFDF50036E5F
:1000A0000350BC27000EBD23BE23BF23C04BC12B72
:1000B0006000F8F2BFF06000F4F2BEF06000F0F211
:1000C000BDF0BC6B600003F3D9FF600007F3DAFFFB
:1000D000DF50036E0350BC27000EBD23BE23BF2399
:1000E000C04BC12BCA51036E046AD8900336043644
:1000F000D890033604360350CB25D96E0450CC215A
:10010000DA6E6000F3F2DEFF6000F7F2DEFF6000FF
:10011000FBF2DEFF6000FFF2DEFFCA2B0F0ECA65A6
:1001200094EF80F096EF80F015EF80F0100ECA6F1C
:10013000CA51036E046AD89003360436D890033649
:10014000043620EE64F00150D9260250DA226F0006
:1001500078FF05F06F0074FF06F003500524CB6FA5
:1001600004500620CC6F2FEEC0F3CB51D926CC51D2
:10017000DA226F0078FF03F06F0078FF04F06F0061
:1001800078FF05F06F0078FF06F02FEEE4F3CB5117
:10019000D926CC51DA226F0078FF07F06F0078FF84
:1001A00008F06F0078FF09F06F0078FF0AF02FEE7B
:1001B000C4F3CB51D926CC51DA226F0078FF0BF073
:1001C0006F0078FF0CF06F0078FF0DF06F0078FF84
:1001D0000EF0040EF1EF80F0D8900E320D320C329A
:1001E0000B32E82EECEF80F02FEEC4F3CB51D92682
:1001F000CC51DA226F0078FF0FF06F0078FF10F01B
:100200006F0078FF11F06F0078FF12F00E0ED8909B
:100210000F36103611361236E82E07EF81F02FEE2A
:10022000C4F3CB51D926CC51DA226F0078FF13F0FA
:100230006F0078FF14F06F0078FF15F06F0078FF03
:1002400016F0130E29EF81F0D890163215321432C1
:100250001332E82E24EF81F00F501310176E105058
:100260001410186E11501510196E125016101A6EC7
:100270002FEEC4F3CB51D926CC51DA226F0078FF90
:100280001BF06F0078FF1CF06F0078FF1DF06F000F
:1002900078FF1EF0190ED8901B361C361D361E3600
:1002A000E82E4BEF81F02FEEC4F3CB51D926CC5181
:1002B000DA226F0078FF1FF06F0078FF20F06F00E8
:1002C00078FF21F06F0078FF22F0080E6DEF81F0CB
:1002D000D8902232213220321F32E82E68EF81F08E
:1002E0001B501F10236E1C502010246E1D50211017
:1002F000256E1E502210266E17502318276E185098
:100300002418286E19502518296E1A5026182A6E9E
:100310000B5027182B6E0C5028182C6E0D502918D6
:100320002D6E0E502A182E6E2FEEF8F3CB51D926D3
:10033000CC51DA226F0078FF2FF06F0078FF30F099
:100340006F0078FF31F06F0078FF32F00B0EAEEFE8
:1003500081F0D8903232313230322F32E82EA9EF8C
:1003600081F02FEEF8F3CB51D926CC51DA226F0071
:1003700078FF33F06F0078FF34F06F0078FF35F0CE
:100380006F0078FF36F00D0ED890333634363536A0
:100390003636E82EC4EF81F02FEEF8F3CB51D92694
:1003A000CC51DA226F0078FF37F06F0078FF38F019
:1003B0006F0078FF39F06F0078FF3AF0140EE6EF27
:1003C00081F0D8903A32393238323732E82EE1EFC4
:1003D00081F0335037103B6E345038103C6E35503E
:1003E00039103D6E36503A103E6E2FEEF8F3CB5179
:1003F000D926CC51DA226F0078FF3FF06F0078FFEA
:1004000040F06F0078FF41F06F0078FF42F00F0E70
:10041000D8903F36403641364236E82E08EF82F01B
:100420002FEEF8F3CB51D926CC51DA226F0078FFAA
:1004300043F06F0078FF44F06F0078FF45F06F00E5
:1004400078FF46F0120E2AEF82F0D89046324532FD
:1004500044324332E82E25EF82F03F504310476E7E
:1004600040504410486E41504510496E425046106D
:100470004A6E3B5047184B6E3C5048184C6E3D50EE
:1004800049184D6E3E504A184E6E2F504B184F6E05
:1004900030504C18506E31504D18516E32504E182D
:1004A000526E2B504F24536E2C505020546E2D50B2
:1004B0005120556E2E505220566E07505324576EC1
:1004C00008505420586E09505520596E0A50562035
:1004D0005A6E035057245B6E045058205C6E0550D2
:1004E00059205D6E06505A205E6E60002FF3D9FFD2
:1004F000600033F3DAFF60006FF1DEFF600073F13C
:10050000DEFF600077F1DEFF60007BF1DEFFCA2BCB
:100510003F0ECA658EEF82F090EF82F098EF80F088
:10052000600007F0D9FF60000BF0DAFF6F0078FF82
:10053000C2F06F0078FFC3F06F0078FFC4F06F0067
:1005400078FFC5F020EE04F00150D9260250DA22DF
:100550006F0078FFB4F06F0078FFB5F06F0078FFA0
:10056000B6F06F0078FFB7F020EE08F00150D92602
:100570000250DA226F0078FFB8F06F0078FFB9F010
:100580006F0078FFBAF06F0078FFBBF020EE0CF040
:100590000150D9260250DA226F0078FFA4F06F00D4
:1005A00078FFA5F06F0078FFA6F06F0078FFA7F046
:1005B00020EE10F00150D9260250DA226F0078FFA9
:1005C000C6F06F0078FFC7F06F0078FFC8F06F00CB
:1005D00078FFC9F020EE14F00150D9260250DA223B
:1005E0006F0078FFACF06F0078FFADF06F0078FF20
:1005F000AEF06F0078FFAFF020EE18F00150D92672
:100600000250DA226F0078FFB0F06F0078FFB1F08F
:100610006F0078FFB2F06F0078FFB3F020EE1CF0AF
:100620000150D9260250DA226F0078FFA8F06F003F
:1006300078FFA9F06F0078FFAAF06F0078FFABF0A9
:1006400020EE64F00150D9260250DA226F0078FFC4
:10065000CBF06F0074FFCCF0000ECA6FCA51036E6E
:10066000046AD89003360436D89003360436035013
:10067000CB25D96E0450CC21DA6E6F0078FF05F0DF
:100680006F0078FF06F06F0078FF07F06F0078FFCB
:1006900008F0CA51040DC50EF324F66EFC0EF420CA
:1006A000F76E09006F00D4FF09F009006F00D4FF56
:1006B0000AF009006F00D4FF0BF009006F00D4FFAF
:1006C0000CF0C61D0D6EC71D0E6EC81D0F6EC91D28
:1006D000106EB0510D14116EB1510E14126EB25154
:1006E0000F14136EB3511014146EAC51C615156E61
:1006F000AD51C715166EAE51C815176EAF51C9155D
:10070000186E11501518196E125016181A6E1350D3
:1007100017181B6E145018181C6E600018F31DF08B
:1007200060001CF31EF0600020F31FF0600024F353
:1007300020F0070ED8901D361E361F362036E82EC4
:100740009AEF83F0600018F321F060001CF322F0B0
:10075000600020F323F0600024F324F01A0EB6EFBB
:1007600083F0D8902432233222322132E82EB1EFA6
:1007700083F01D502110256E1E502210266E1F5032
:100780002310276E20502410286E600018F329F0E3
:1007900060001CF32AF0600020F32BF0600024F3CB
:1007A0002CF0150ED89029362A362B362C36E82E0A
:1007B000D2EF83F0600018F32DF060001CF32EF0F0
:1007C000600020F32FF0600024F330F00C0EEEEF09
:1007D00083F0D89030322F322E322D32E82EE9EFCE
:1007E00083F029502D10316E2A502E10326E2B506E
:1007F0002F10336E2C503010346E600018F335F02B
:1008000060001CF336F0600020F337F0600024F342
:1008100038F01A0ED8903536363637363836E82E58
:100820000AEF84F0600018F339F060001CF33AF02E
:10083000600020F33BF0600024F33CF0070E26EF4D
:1008400084F0D8903C323B323A323932E82E21EFF4
:1008500084F0355039103D6E36503A103E6E3750A8
:100860003B103F6E38503C10406E31503D18416E89
:1008700032503E18426E33503F18436E3450401889
:10088000446E25504118456E26504218466E27503A
:100890004318476E28504418486E19504524496E35
:1008A0001A5046204A6E1B5047204B6E1C50482061
:1008B0004C6E095049244D6E0A504A204E6E0B5022
:1008C0004B204F6E0C504C20506E05504D24516EF5
:1008D00006504E20526E07504F20536E0850502045
:1008E000546EA8515124BC6FA9515220BD6FAA511A
:1008F0005320BE6FAB515420BF6FB851B415036E77
:10090000B951B515046EBA51B615056EBB51B71580
:10091000066EB851C215076EB951C315086EBA51AB
:10092000C415096EBB51C5150A6EB451C2150B6EC4
:10093000B551C3150C6EB651C4150D6EB751C51522
:100940000E6E07500B180F6E08500C18106E0950E1
:100950000D18116E0A500E18126E03500F18136EF8
:1009600004501018146E05501118156E0650121808
:10097000166E600008F317F060000CF318F06000CA
:1009800010F319F0600014F31AF00A0ED89017361D
:10099000183619361A36E82EC6EF84F0600008F3D0
:1009A0001BF060000CF31CF0600010F31DF0600001
:1009B00014F31EF0170EE2EF84F0D8901E321D32B1
:1009C0001C321B32E82EDDEF84F017501B101F6E17
:1009D00018501C10206E19501D10216E1A501E1038
:1009E000226E600008F323F060000CF324F0600036
:1009F00010F325F0600014F326F0130ED890233680
:100A0000243625362636E82EFEEF84F0600008F303
:100A100027F060000CF328F0600010F329F060006C
:100A200014F32AF00E0E1AEF85F0D8902A322932EC
:100A300028322732E82E15EF85F0235027102B6E31
:100A4000245028102C6E255029102D6E26502A1067
:100A50002E6E600008F32FF060000CF330F06000A1
:100A600010F331F0600014F332F01E0ED8902F36E0
:100A7000303631363236E82E36EF85F0600008F336
:100A800033F060000CF334F0600010F335F06000D8
:100A900014F336F0030E52EF85F0D890363235322B
:100AA00034323332E82E4DEF85F02F503310376E4D
:100AB00030503410386E31503510396E3250361097
:100AC0003A6E2B5037183B6E2C5038183C6E2D5018
:100AD00039183D6E2E503A183E6E1F503B183F6E2F
:100AE00020503C18406E21503D18416E22503E1857
:100AF000426E13503F24A06F14504020A16F155038
:100B00004120A26F16504220A36F6000C0F2A8F0EF
:100B10006000C4F2A9F06000C8F2AAF06000CCF254
:100B2000ABF06000B0F2B0F06000B4F2B1F0600081
:100B3000B8F2B2F06000BCF2B3F0600018F3ACF0B1
:100B400060001CF3ADF0600020F3AEF0600024F311
:100B5000AFF0BC51A425C66FBD51A521C76FBE51D2
:100B6000A621C86FBF51A721C96F6000E0F2A4F0B1
:100B70006000E4F2A5F06000E8F2A6F06000ECF29C
:100B8000A7F06000D0F2B8F06000D4F2B9F06000D5
:100B9000D8F2BAF06000DCF2BBF0600008F3B4F009
:100BA00060000CF3B5F0600010F3B6F0600014F3D1
:100BB000B7F0A051BC25C26FA151BD21C36FA25196
:100BC000BE21C46FA351BF21C56FCA2B3F0ECA659A
:100BD000ECEF85F0EEEF85F02EEF83F0600007F08C
:100BE000D9FF60000BF0DAFFC251DE26C351DE22CE
:100BF000C451DE22C551DE2220EE04F00150D92678
:100C00000250DA22B451DE26B551DE22B651DE2280
:100C1000B751DE2220EE08F00150D9260250DA2228
:100C2000B851DE26B951DE22BA51DE22BB51DE2296
:100C300020EE0CF00150D9260250DA22A451DE2613
:100C4000A551DE22A651DE22A751DE2220EE10F0B1
:100C50000150D9260250DA22C651DE26C751DE22C3
:100C6000C851DE22C951DE2220EE14F00150D926EF
:100C70000250DA22AC51DE26AD51DE22AE51DE2228
:100C8000AF51DE2220EE18F00150D9260250DA22B0
:100C9000B051DE26B151DE22B251DE22B351DE2246
:100CA00020EE1CF00150D9260250DA22A851DE268F
:100CB000A951DE22AA51DE22AB51DE221200000130
:100CC00020EE20F0CD51D926CE51DA226F0078FFE8
:100CD000D1F06F0074FFD2F03F0ED117000ED21783
:100CE000600034F3D3F0600038F3D4F0D151D3274F
:100CF000D251D423240ED325D86F000ED421D96F1E
:100D0000600063F3D9FF600067F3DAFF800EDF6EE7
:100D1000D84BD92B5C0ECD25D56F000ECE21D66FCA
:100D2000D851D55DD951D659D8B099EF86F09BEFFF
:100D300086F0C9EF86F0080ED527000ED623ABEF5C
:100D400086F0600063F3D9FF600067F3DAFF000EFE
:100D5000DF6ED84BD92BD551D85DD651D959D8A0F3
:100D6000B4EF86F0B6EF86F0A1EF86F0600034F3C2
:100D700001F0600038F302F000EC80F0240E000176
:100D8000CD25D86F000ECE21D96F080ED55F000E8D
:100D9000D65B030ED527000ED623D9EF86F0600070
:100DA00063F3D9FF600067F3DAFF000EDF6ED84B04
:100DB000D92BD551D85DD651D959D8A0E2EF86F0BC
:100DC000E4EF86F0CFEF86F020EE20F0CD51D9266B
:100DD000CE51DA226F0078FFD1F06F0078FFD2F0A9
:100DE0006F0078FFD3F06F0078FFD4F01E0EFEEF97
:100DF00086F0D890D433D333D233D133E82EF9EF01
:100E000086F0D151600063F3D9FF600067F3DAFF29
:100E1000DF6ED84BD92B20EE20F0CD51D926CE5104
:100E2000DA226F0078FFD1F06F0078FFD2F06F0008
:100E300078FFD3F06F0078FFD4F0160E25EF87F01F
:100E4000D890D433D333D233D133E82E20EF87F088
:100E5000D151600063F3D9FF600067F3DAFFDF6E02
:100E6000D84BD92B20EE20F0CD51D926CE51DA2205
:100E70006F0078FFD1F06F0078FFD2F06F0078FF3D
:100E8000D3F06F0078FFD4F00E0E4CEF87F0D890BF
:100E9000D433D333D233D133E82E47EF87F0D15157
:100EA000600063F3D9FF600067F3DAFFDF6ED84BB1
:100EB000D92B20EE20F0CD51D926CE51DA226F0069
:100EC00078FFD1F06F0078FFD2F06F0078FFD3F099
:100ED0006F0078FFD4F0060E73EF87F0D890D4330C
:100EE000D333D233D133E82E6EEF87F0D151600087
:100EF00063F3D9FF600067F3DAFFDF6ED84BD92BBD
:100F000020EE20F0CD51D926CE51DA22DF50D16F1C
:100F1000D890D137D890D137D890D135600063F3CD
:100F2000D9FF600067F3DAFFDF6ED84BD92B600082
:100F300034F301F0600038F302F000EC80F0000EB2
:100F40000001D76FD751D16FD26BD890D137D2373C
:100F5000D890D137D237D151CF25016ED251D0217F
:100F6000026ED751040D6F00CCFFD3F06F00D0FF9D
:100F7000D4F0D351CD25D96ED451CE21DA6E6F0085
:100F800078FF03F06F0078FF04F06F0078FF05F042
:100F90006F0078FF06F096EC8AF00001D72B060E62
:100FA000D765D5EF87F0D7EF87F0A2EF87F020EE77
:100FB00066F0CD51D926CE51DA22DE04D8A4E3EF73
:100FC00087F0E5EF87F0FFEF87F01C0ECF25016E6D
:100FD000000ED021026E20EE1CF0CD51D926CE514C
:100FE000DA226F0078FF03F06F0078FF04F06F00E3
:100FF00078FF05F06F0078FF06F096EC8AF012009B
:101000000304D8A406EF88F008EF88F07AEF88F0A0
:10101000600007F0D9FF60000BF0DAFF670EDE6EAC
:10102000E60EDE6E090EDE6E6A0EDD6E20EE04F058
:101030000150D9260250DA22850EDE6EAE0EDE6E2B
:10104000670EDE6EBB0EDD6E20EE08F00150D92675
:101050000250DA22720EDE6EF30EDE6E6E0EDE6E61
:101060003C0EDD6E20EE0CF00150D9260250DA2243
:101070003A0EDE6EF50EDE6E4F0EDE6EA50EDD6EE6
:1010800020EE10F00150D9260250DA227F0EDE6EDB
:10109000520EDE6E0E0EDE6E510EDD6E20EE14F080
:1010A0000150D9260250DA228C0EDE6E680EDE6EFA
:1010B000050EDE6E9B0EDD6E20EE18F00150D92677
:1010C0000250DA22AB0EDE6ED90EDE6E830EDE6EBD
:1010D0001F0EDD6E20EE1CF00150D9260250DA22E0
:1010E000190EDE6ECD0EDE6EE00EDE6E5B0EDD6E78
:1010F000EAEF88F0600007F0D9FF60000BF0DAFF3C
:10110000D80EDE6E9E0EDE6E050EDE6EC10EDD6E3C
:1011100020EE04F00150D9260250DA22070EDE6ECE
:10112000D50EDE6E7C0EDE6E360EDD6E20EE08F025
:101130000150D9260250DA22170EDE6EDD0EDE6E69
:10114000700EDE6E300EDD6E20EE0CF00150D926F2
:101150000250DA22390EDE6E590EDE6E0E0EDE6E93
:10116000F70EDD6E20EE10F00150D9260250DA2283
:10117000310EDE6E0B0EDE6EC00EDE6EFF0EDD6E0D
:1011800020EE14F00150D9260250DA22110EDE6E44
:10119000150EDE6E580EDE6E680EDD6E20EE18F057
:1011A0000150D9260250DA22A70EDE6E8F0EDE6EB7
:1011B000F90EDE6E640EDD6E20EE1CF00150D926B5
:1011C0000250DA22A40EDE6E4F0EDE6EFA0EDE6ED6
:1011D000BE0EDD6E20EE66F00150D9260250DA22F6
:1011E00060000FF0DFFF20EE20F00150D926025002
:1011F000DA22DE6ADE6ADE6ADD6A20EE64F0015021
:10120000D9260250DA22600013F0DEFF600017F0EA
:10121000DDFF1200000120EE20F0CD51D926CE5185
:10122000DA226F0078FFD5F06F0074FFD6F03F0E22
:10123000D517000ED617600034F3D7F0600038F3EE
:10124000D8F0D551D727D651D823240ED725D96F1A
:10125000000ED821DA6F20EE20F0CD51D926CE51E4
:10126000DA22D151DE26D251DE22D351DE22D451F0
:10127000DE2275EF89F060003FF3F6FF600043F374
:10128000F7FF600067F3D9FF60006BF3DAFF080037
:101290006F00D7FFDFFFCF4BD02BD94BDA2B640E7B
:1012A000CD25D56F000ECE21D66FD551D91907E1C6
:1012B000D651DA19D8A45FEF89F061EF89F070EFA9
:1012C00089F0600034F301F0600038F302F000ECC4
:1012D00080F0240E0001CD25D96F000ECE21DA6FEB
:1012E000D107000ED25BD35BD45BD151D211D311A5
:1012F000D411D8A47EEF89F080EF89F03BEF89F01C
:101300001200FCEC8AF0000E016E010E026E010E5E
:10131000036E670E046E010E056E00EC88F0000E81
:101320000001CD6F010ECE6FFD0ECF6FFF0ED06F9F
:10133000000ED16F000ED26F000ED36F000ED46F6F
:101340000AEC89F0000E0001CD6F010ECE6F600E29
:10135000CF6F000ED06F5FEC86F0600E016E000E56
:10136000026EDB0E036EFF0E046E000E066E200E84
:10137000056EF7EC89F0000E016E010E026E010E93
:10138000036E670E046E010E056E00EC88F0000E11
:101390000001CD6F010ECE6FFB0ECF6FFF0ED06F31
:1013A000010ED16F000ED26F000ED36F000ED46FFE
:1013B0000AEC89F0000E0001CD6F010ECE6F600EB9
:1013C000CF6F000ED06F5FEC86F0600E016E000EE6
:1013D000026EBB0E036EFF0E046E000E066E200E34
:1013E000056EF7EC89F083EF89F0FEEFFFF0600007
:1013F00004F008F0600008F009F060000CF00AF05A
:10140000600010F00BF00CEF8AF00506D8A006067D
:10141000084A092A0A4A0B2A05500610D8B413EFC5
:101420008AF015EF8AF02DEF8AF0600023F0D9FFE3
:10143000600027F0DAFFDF50076E60002BF0F6FF48
:1014400060002FF0F7FF0800F5500718D8B42BEF15
:101450008AF02DEF8AF005EF8AF005500610D8A427
:1014600034EF8AF036EF8AF03CEF8AF0000E026E1D
:10147000000E016E51EF8AF0600023F0D9FF60008A
:1014800027F0DAFFDF50076E60002BF0F6FF6000F8
:101490002FF0F7FF0800F550075C016E026AD8A034
:1014A00002061200000EBE6E000EBD6E000EBA6E79
:1014B000000EBB6E000EBC6E070EC66EC268C3681F
:1014C000C468C5683A01706960695069070E806F29
:1014D0004069000E716F000E816F000E516F000E9B
:1014E000416F000E616F000E5A6F000E5B6F000EB1
:1014F0006A6F000E6B6F000E7A6F000E7B6F000E2E
:10150000826F000E426F000E526F000E626F000E6F
:10151000726F4369536963697369070E836F446926
:101520005469646974690F0E846F1200600007F0DB
:10153000D9FF60000BF0DAFF60001BF0DFFF014A0B
:10154000022A600007F0D9FF60000BF0DAFF6000AC
:1015500017F0DFFF014A022A600007F0D9FF6000A0
:101560000BF0DAFF600013F0DFFF014A022A60008F
:1015700007F0D9FF60000BF0DAFF60000FF0DFFF2B
:10158000014A022A120000EE67F110EE40F1EE6A05
:10159000E550E150FCE1E250FAE100EE00F1670EA7
:1015A000EE6AE806FDE100EE60F0400EEE6AE80645
:1015B000FDE1000EF86E000181EF89F0000E3901A7
:1015C000C06F000EC16F000EC26F000EC36F000E21
:1015D000C46F000EC56F000EC66F000EC76F1200FD
:1015E000600E3901D96F000EDB6F000EDD6F080E43
:1015F000DF6F000EDE6F1200DEEC8AF052EC8AF034
:06160000F0EC8AF012007C
:04FFFC00C3EF8AF0D5
:020000040020DA
:10000000FF0FFF0FFF0FFF0FFF0FFF0FFF0FFF0F80
:020000040030CA
:0A0000008CFFF7FF9FFFFFFFFFFFDB
:00000001FF
